:04000000F0EF01F02C
:08000800046ED8CF05F0E0CF33
:1000100006F00001E9CF0CF0EACF07F0E1CF08F0DD
:10002000E2CF09F0D9CF0AF0DACF0BF0F3CF12F01C
:10003000F4CF13F0FACF14F0F5CF15F0F6CF16F099
:10004000F7CF17F000C00EF001C00FF002C010F0A3
:1000500003C011F0F2A830EF00F0F2B243EF01F06C
:100060000EC000F00FC001F010C002F011C003F08C
:100070000CC0E9FF07C0EAFF078E08C0E1FF09C016
:10008000E2FF0AC0D9FF0BC0DAFF12C0F3FF13C0B2
:10009000F4FF14C0FAFF15C0F5FF16C0F6FF17C035
:1000A000F7FF045006C0E0FF05C0D8FF1000F76A54
:1000B000BE0FF66E000EF7220900F55012006765BC
:1000C000745F646174612066726F6D204D41494EAA
:1000D0003A00939E8A9E080E016E00D00000018EA9
:1000E0000ED0019E4232D8B08A8ED8A08A9E018C52
:1000F00006D0019C012EF6D700D000008A8E1C0E7F
:10010000E96EE92EFED700D001BEEBD701BCF1D7D6
:1001100012000900F5520CE0F6CF37F0F7CF38F0B7
:10012000F5CF42F0D6DF37C0F6FF38C0F7FFF1D782
:100130001200948282B2FED7080E006E3B6A008ED7
:100140000ED0009E0CD0D89082B2D8803B32008C6A
:1001500006D0009C002EF7D73BC001F00CD01C0E3F
:1001600000BE070E016E012EFED7000000BEE9D7CB
:1001700000BCEFD7E8D759EF01F0EF520FE0EACF1C
:1001800040F0E9CF3FF0EFCF42F0A3DF40C0EAFFFD
:100190003FC0E9FFE92AD8B4EA2AEFD7120043505A
:1001A000016A425C03E242C000F00CD0006A080E13
:1001B000446E423600364350005CD8B0006E0136C3
:1001C000442EF7D71200015040C042F0640E436E37
:1001D000E6DF00C040F00150300E07E141A20CD034
:1001E00041B60AD041B8200E03D0419641984180D3
:1001F000012601C042F06DDF40C042F00A0E436E9E
:10020000CEDF00C040F00150300E06E141B608D00C
:1002100041A006D041B8200E012601C042F059DFAE
:10022000300E402640C042F054DF39EF01F03AC0B2
:10023000EAFF39C0E9FFA1DF3E6A3D503E5C1BE2A8
:100240003E500F0B06E10D0E426E43DF0A0E426E6A
:1002500040DF3E503B24E96E000E3C20EA6EEFCFBB
:100260003FF0200E426E35DF3FC040F0130E416E6E
:10027000AAD73E2AE2D70D0E426E2BDF0A0E426E3F
:1002800028DF85EF01F0100EF66E030EF76E41DFEA
:10029000226A225223E182B220D0036A22501A0F2E
:1002A000E96E000E0320EA6EEACF3AF0E9CF39F0AA
:1002B00040D73AC0EAFF39C0E9FF01C0EFFF036A47
:1002C00022501A0FE96E000E0320EA6EEFCF37F0CE
:1002D000EA6A37C0E9FF51DF222ADBD7EA6A230E38
:1002E000E96E140E016EF76A000EE1DE0A000900E5
:1002F000F5CFEEFF012EFBD73A6A230E396E3C6A2A
:100300001A0E3B6E010E3D6E92D7F29230EF00F066
:10031000496E74657272757074203C3C204D414981
:100320004E0D0A00666C69656E616D653A20257335
:100330000D0A00007069635F7374616E64617264BA
:100340002E630000636F6D70696C65643A202573DD
:100350002025730D0A0031312D322D323300313911
:100360003A32393A3332000070726F6772616D2031
:10037000656E640D0A0025752062797465732073BB
:10038000656E7420746F204D41494E0D0A00EA6A73
:100390001F0EE96EEF500EE0010E016E006A002E96
:1003A000FED7012EFBD74A0E006E002EFED700D0DE
:1003B000EF2EF2D712000900F6CF1FF0F7CF20F092
:1003C000196AF2BE198EF29EF5CF42F082DE19BE96
:1003D000F28E1FC0F6FF20C0F7FF1E2EECD71200D2
:1003E000F86AD09E078E939E8A8E94948B841C6AA2
:1003F0001B6A1D6AC150C00B0F09C16E070EB46E97
:100400001A6A080E1E6EFA0E1F6EC1DF1E2EFBD773
:10041000240EF66E030EF76E0A0E1E6ECCDF340E3F
:10042000F66E030EF76E196AF2BE198EF29E71DE39
:1004300019BEF28E196AF2BE198EF29E0D0E426E30
:1004400048DE19BEF28E196AF2BE198EF29E0A0EAD
:10045000426E3FDE19BEF28E440EF66E030EF76E4C
:100460000A0E1E6EA8DF560EF66E030EF76E196AA0
:10047000F2BE198EF29E4DDE19BEF28E196AF2BEE0
:10048000198EF29E200E426E24DE19BEF28E5E0E92
:10049000F66E030EF76E196AF2BE198EF29E39DE01
:1004A00019BEF28E196AF2BE198EF29E0D0E426EC0
:1004B00010DE19BEF28E196AF2BE198EF29E0A0E75
:1004C000426E07DE19BEF28EF288C00EF212010EE5
:1004D0001F6E5DDF080E1E6EFA0E1F6E58DF1E2E99
:1004E000FBD7F8D7680EF66E030EF76E196AF2BEE8
:1004F000198EF29E0EDE19BEF28E000E016E030002
:020000040030CA
:0E00000000C2191E008781000FC00FE00F40E4
:00000001FF
;PIC18LF4620
;CRC=6E02  CREATED="11-2-23 19:29"
