:04000000A8EF02F073
:08000800046ED8CF05F0E0CF33
:1000100006F00001E9CF0CF0EACF07F0E1CF08F0DD
:10002000E2CF09F0D9CF0AF0DACF0BF0F3CF12F01C
:10003000F4CF13F0FACF14F0F5CF15F0F6CF16F099
:10004000F7CF17F000C00EF001C00FF002C010F0A3
:1000500003C011F0F2A830EF00F0F2B243EF01F06C
:100060000EC000F00FC001F010C002F011C003F08C
:100070000CC0E9FF07C0EAFF078E08C0E1FF09C016
:10008000E2FF0AC0D9FF0BC0DAFF12C0F3FF13C0B2
:10009000F4FF14C0FAFF15C0F5FF16C0F6FF17C035
:1000A000F7FF045006C0E0FF05C0D8FF1000F76A54
:1000B000BE0FF66E000EF7220900F55012006765BC
:1000C000745F646174612066726F6D204D41494EAA
:1000D0003A00939E8A9E080E016E00D00000018EA9
:1000E0000ED0019E4A32D8B08A8ED8A08A9E018C4A
:1000F00006D0019C012EF6D700D000008A8E1C0E7F
:10010000E96EE92EFED700D001BEEBD701BCF1D7D6
:1001100012000900F5520CE0F6CF3FF0F7CF40F0A7
:10012000F5CF4AF0D6DF3FC0F6FF40C0F7FFF1D76A
:100130001200948282B2FED7080E006E436A008ECF
:100140000ED0009E0CD0D89082B2D8804332008C62
:1001500006D0009C002EF7D743C001F00CD01C0E37
:1001600000BE070E016E012EFED7000000BEE9D7CB
:1001700000BCEFD7E8D759EF01F0EF520FE0EACF1C
:1001800048F0E9CF47F0EFCF4AF0A3DF48C0EAFFDD
:1001900047C0E9FFE92AD8B4EA2AEFD712004B504A
:1001A000016A4A5C03E24AC000F00CD0006A080E03
:1001B0004C6E4A3600364B50005CD8B0006E0136AB
:1001C0004C2EF7D71200015048C04AF0640E4B6E17
:1001D000E6DF00C048F00150300E07E149A20CD024
:1001E00049B60AD049B8200E03D0499649984980AB
:1001F000012601C04AF06DDF48C04AF00A0E4B6E7E
:10020000CEDF00C048F00150300E06E149B608D0FC
:1002100049A006D049B8200E012601C04AF059DF96
:10022000300E482648C04AF054DF39EF01F042C092
:10023000EAFF41C0E9FFA1DF466A4550465C1BE288
:1002400046500F0B06E10D0E4A6E43DF0A0E4A6E52
:1002500040DF46504324E96E000E4420EA6EEFCFA3
:1002600047F0200E4A6E35DF47C048F0130E496E46
:10027000AAD7462AE2D70D0E4A6E2BDF0A0E4A6E27
:1002800028DF85EF01F0100EF66E030EF76E41DFEA
:100290002A6A2A5223E182B220D0036A2A501A0F16
:1002A000E96E000E0320EA6EEACF42F0E9CF41F09A
:1002B00040D742C0EAFF41C0E9FF01C0EFFF036A37
:1002C0002A501A0FE96E000E0320EA6EEFCF3FF0BE
:1002D000EA6A3FC0E9FF51DF2A2ADBD7EA6A2B0E20
:1002E000E96E140E016EF76A000EE1DE0A000900E5
:1002F000F5CFEEFF012EFBD7426A2B0E416E446A0A
:100300001A0E436E010E456E92D7F29230EF00F056
:10031000496E74657272757074203C3C204D414981
:100320004E0D0A00666C69656E616D653A20257335
:100330000D0A00007069635F7374616E64617264BA
:100340002E630000636F6D70696C65643A202573DD
:100350002025730D0A0032382D332D323300313110
:100360003A35353A343100000D0A4D495353494F5F
:100370004E20434F4E54524F4C2053544152540D33
:100380000A00414E302056616C75653A20256C6438
:100390000A0070726F6772616D20656E640D0A00ED
:1003A00025752062797465732073656E7420746F8F
:1003B000204D41494E0D0A00EA6A210EE96EEF50C8
:1003C0000EE0010E016E006A002EFED7012EFBD753
:1003D0004A0E006E002EFED700D0EF2EF2D712008C
:1003E0000900F6CF21F0F7CF22F0196AF2BE198E7C
:1003F000F29EF5CF4AF06DDE19BEF28E21C0F6FFF7
:1004000022C0F7FF202EECD71200226A216A0C0EC0
:10041000236ED89020302312959E8C9E0000C950E8
:1004200023C0C9FFC730FEE3C730FEE3226AC9CF4D
:1004300021F021C022F0216AC730FEE3C950211209
:10044000959E8C8E21C001F022C002F041EF03F096
:10045000EACF28F0E9CF27F021AE08D0278E27A8D1
:10046000272A201E211E202AD8B4212A2138F0094B
:10047000236E2326E20F246E320F266E21500F0BBF
:10048000242624262626E90F256E25262526203813
:100490000F0B2526262625362636261E26362050E4
:1004A0000F0B26262336070E226E0A0E2506262659
:1004B000FDE324062526FDE323062426FDE322068C
:1004C0002326FDE3EA6A220EE96E070E2714279C15
:1004D000ED52271407E127B8EE5227B803D0200EBB
:1004E000006E20D0E926000EEA22E950260803E13A
:1004F000EA5201E1278CEF50006E08E127BC06D0DC
:1005000027B821D027B602D0200E0BD027AE06D0B8
:100510002D0E006EED50279C279E04D0278627982D
:10052000300E0026EACF21F0E9CF20F0196AF2BEA2
:10053000198EF29E00C04AF0CCDD19BEF28E21C0A9
:10054000EAFF20C0E9FFEE5027ACCFD753EF03F00E
:10055000F86AD09E078E939E8A8E94948B841C6A30
:100560001B6A1D6AC150C00B0F09C16E070EB46E25
:100570001A6A080E206EFA0E216E1EDF202EFBD79F
:10058000240EF66E030EF76E0A0E206E29DF340E6F
:10059000F66E030EF76E196AF2BE198EF29EB9DD81
:1005A00019BEF28E196AF2BE198EF29E0D0E4A6EB7
:1005B00090DD19BEF28E196AF2BE198EF29E0A0EF5
:1005C0004A6E87DD19BEF28E440EF66E030EF76E8C
:1005D0000A0E206E05DF560EF66E030EF76E196AD0
:1005E000F2BE198EF29E95DD19BEF28E196AF2BE28
:1005F000198EF29E200E4A6E6CDD19BEF28E5E0ED2
:10060000F66E030EF76E196AF2BE198EF29E81DD48
:1006100019BEF28E196AF2BE198EF29E0D0E4A6E46
:1006200058DD19BEF28E196AF2BE198EF29E0A0EBC
:100630004A6E4FDD19BEF28E680EF66E030EF76E2F
:10064000196AF2BE198EF29E64DD19BEF28EC15097
:10065000C00B0E09C16EC050C00B0709C06EC09E12
:10066000C280C69A949A94889496210EC66E000E03
:10067000C76EF288C00EF212010E216E9DDE206A56
:10068000C4D602C01FF001C01EF0820EF66E030E2B
:10069000F76E0B0E206EA4DE100EE96E1FC021F067
:1006A0001EC020F0D5D6196AF2BE198EF29E0A0E2F
:1006B0004A6E0FDD19BEF28E080E206EFA0E216E04
:1006C0007BDE202EFBD7DBD7920EF66E030EF76E85
:1006D000196AF2BE198EF29E1CDD19BEF28E000E52
:0406E000016E0300A4
:020000040030CA
:0E00000000C2191E008781000FC00FE00F40E4
:00000001FF
;PIC18LF4620
;CRC=8145  CREATED="28-3-23 11:55"
